:100000000C945B000C9483000C9483000C9483008C
:100010000C9483000C9483000C9483000C94830054
:100020000C9483000C9483000C9483000C94830044
:100030000C9483000C9483000C9483000C94830034
:100040000C94BF000C9483000C940B030C9483005D
:100050000C9483000C9483000C9483000C94830014
:100060000C9483000C9483006B03000000070002D3
:10007000010000030406000000000000000001026F
:100080000408102040800102040810200102040826
:100090001020040404040404040402020202020204
:1000A0000303030303030000232629000025282B54
:1000B000000024272A0011241FBECFEFD4E0DEBFAA
:1000C000CDBF11E0A0E0B1E0EAEBF7E002C005909F
:1000D0000D92A630B107D9F711E0A6E0B1E001C05A
:1000E0001D92A939B107E1F710E0CAE6D0E004C0DB
:1000F0002297FE010E94D803C836D107C9F70E9493
:10010000B4000C94DC030C94000040E052EC61E07D
:1001100070E087E191E00E94480361E088E00E947E
:10012000D40161E088E00E94420261E087E00E9421
:10013000D401089560E087E00E9442020E94D2024A
:10014000892B69F061E088E00E9442020E94E3028C
:10015000809306010E94CA0261E087E002C060E06D
:1001600088E00E9442020895CFEFD4E0DEBFCDBF09
:100170000E9470010E9485000E949A00FDCF1F928C
:100180000F920FB60F9211242F938F939F93AF93DB
:10019000BF9380910F0190911001A0911101B09136
:1001A00012010196A11DB11D80930F0190931001C2
:1001B000A0931101B093120180910B0190910C0159
:1001C000A0910D01B0910E018050904CAF4FBF4FE8
:1001D00080930B0190930C01A0930D01B0930E013D
:1001E00027C080910B0190910C01A0910D01B0915D
:1001F0000E0180589E43A040B04080930B01909325
:100200000C01A0930D01B0930E0180910701909114
:100210000801A0910901B0910A010196A11DB11D2B
:100220008093070190930801A0930901B0930A01FC
:1002300080910B0190910C01A0910D01B0910E01E4
:1002400081589E43A040B04060F6BF91AF919F910E
:100250008F912F910F900FBE0F901F9018952FB771
:10026000F8946091070170910801809109019091C3
:100270000A012FBF0895EFB7F89486B5282F3327CA
:1002800044275527A89B06C0882321F420E031E0AD
:1002900040E050E060910F017091100180911101D8
:1002A00090911201EFBF982F872F762F6627620F4C
:1002B000731F841F951F22E0660F771F881F991FE9
:1002C0002A95D1F70895019751F0880F991F880F4B
:1002D000991F02972FB7F8940197F1F72FBF089550
:1002E000789484B5826084BD84B5816084BD85B511
:1002F000826085BD85B5816085BDEEE6F0E08081D8
:1003000081608083E1E8F0E0808182608083808189
:1003100081608083E0E8F0E0808181608083E1EBB0
:10032000F0E0808184608083E0EBF0E08081816098
:100330008083EAE7F0E0808184608083808182604E
:100340008083808181608083808180688083109237
:10035000C1000895EF92FF920F931F937B018C01D0
:100360008FB7F894409107015091080160910901FD
:1003700070910A018FBF2FB7F89480910701909177
:100380000801A0910901B0910A012FBF841B950BB0
:10039000A60BB70BE816F9060A071B0760F71F91B3
:1003A0000F91FF90EF900895282F3327C9018258AD
:1003B0009F4FFC01C895902D2E563F4FF901C895CF
:1003C000802D882389F0E82FFF27E055FF4FC8953F
:1003D000E02DFF27662329F480819095892380836F
:1003E00008958081892B80830895482F5527CA015D
:1003F00086599F4FFC01C895202DCA0182589F4FF6
:10040000FC01C895902D4E565F4FFA01C895302DCE
:100410003323A9F1222331F1233021F4809180008C
:100420008F7705C0243031F4809180008F7D8093D8
:10043000800018C0213019F484B58F7704C02230B1
:1004400021F484B58F7D84BD0DC0263021F48091C8
:10045000B0008F7705C0273029F48091B0008F7DE0
:100460008093B000E32FFF27EA55FF4FC895E02D9A
:10047000FF278081892319F081E090E0089580E0D2
:1004800090E00895482F5527CA0186599F4FFC01D7
:10049000C895202DCA0182589F4FFC01C895902D08
:1004A0004E565F4FFA01C895302D3323C9F12223F0
:1004B00031F1233021F4809180008F7705C0243002
:1004C00031F4809180008F7D8093800018C02130AE
:1004D00019F484B58F7704C0223021F484B58F7D60
:1004E00084BD0DC0263021F48091B0008F7705C007
:1004F000273029F48091B0008F7D8093B000E32FE6
:10050000FF27E555FF4FC895E02DFF27662329F407
:10051000808190958923808308958081892B8083B1
:100520000895EF92FF920F931F937B018C0122E0BD
:1005300030E040E050E00E948503205C3D4B404F9E
:100540005F4FCA01B901A80197010E94850321509C
:10055000304040405040BB2757FDBA95A52F942FFF
:10056000832F2F5F3F4F4F4F5F4F8093C500215028
:100570002093C400E1ECF0E0808180618083808181
:10058000886080838081806880831F910F91FF90B5
:10059000EF900895982F8091C00085FFFCCF909335
:1005A000C6000895809115019091160120911301C4
:1005B00030911401821B930B80589F4F60E870E0CC
:1005C0000E9472030895409113015091140180918B
:1005D0001501909116018417950719F48FEF9FEF7D
:1005E0000895FA01E75EFE4F2081CA01019660E896
:1005F00070E00E9472039093140180931301822F84
:1006000099270895809113019091140190931601F8
:100610008093150108951F920F920FB60F92112427
:100620002F933F934F935F936F937F938F939F93FA
:10063000AF93BF93EF93FF934091C600E0911501F4
:10064000F0911601CF01019660E870E00E947203FC
:100650009C0180911301909114012817390739F0FA
:10066000E75EFE4F40833093160120931501FF9102
:10067000EF91BF91AF919F918F917F916F915F911A
:100680004F913F912F910F900FBE0F901F90189593
:10069000CB01BA010E94910208950E94D2029927CB
:1006A00008950E94E30208950E9402030895862F90
:1006B0000E94CA020895FC0184E091E09183808346
:1006C00008956F5F7F4F31F4019721F487E191E046
:1006D0000E945B0308956FEF7FEF81E090E00E943E
:1006E0006103089597FB092E07260AD077FD04D0F1
:1006F00027D006D000201AF4709561957F4F089599
:10070000F6F7909581959F4F089597FB092E052642
:100710000ED057FD04D028D00AD0001C38F45095D4
:100720004095309521953F4F4F4F5F4F0895F6F715
:1007300090958095709561957F4F8F4F9F4F08954D
:10074000AA1BBB1B51E107C0AA1FBB1FA617B707F7
:1007500010F0A61BB70B881F991F5A95A9F7809513
:100760009095BC01CD010895A1E21A2EAA1BBB1BD6
:10077000FD010DC0AA1FBB1FEE1FFF1FA217B3076D
:10078000E407F50720F0A21BB30BE40BF50B661F83
:10079000771F881F991F1A9469F760957095809547
:1007A00090959B01AC01BD01CF010895EE0FFF1F95
:0A07B0000590F491E02D0994FFCFAD
:0607BA00000000005703DF
:00000001FF
